{
  "contractName": "ExamContract",
  "abi": [
    {
      "constant": true,
      "inputs": [],
      "name": "paperlength",
      "outputs": [
        {
          "name": "",
          "type": "uint256"
        }
      ],
      "payable": false,
      "stateMutability": "view",
      "type": "function"
    },
    {
      "constant": true,
      "inputs": [
        {
          "name": "",
          "type": "uint256"
        }
      ],
      "name": "candidateaccountgetter",
      "outputs": [
        {
          "name": "paper_code",
          "type": "uint256"
        },
        {
          "name": "candidate_name",
          "type": "string"
        },
        {
          "name": "marks_obtained",
          "type": "uint256"
        },
        {
          "name": "ether_balance",
          "type": "uint256"
        }
      ],
      "payable": false,
      "stateMutability": "view",
      "type": "function"
    },
    {
      "constant": true,
      "inputs": [
        {
          "name": "",
          "type": "address"
        }
      ],
      "name": "testcandidates",
      "outputs": [
        {
          "name": "",
          "type": "bool"
        }
      ],
      "payable": false,
      "stateMutability": "view",
      "type": "function"
    },
    {
      "constant": true,
      "inputs": [],
      "name": "totalnoofcandidates",
      "outputs": [
        {
          "name": "",
          "type": "uint256"
        }
      ],
      "payable": false,
      "stateMutability": "view",
      "type": "function"
    },
    {
      "inputs": [],
      "payable": false,
      "stateMutability": "nonpayable",
      "type": "constructor"
    },
    {
      "constant": true,
      "inputs": [],
      "name": "initarray",
      "outputs": [
        {
          "name": "",
          "type": "uint256[]"
        }
      ],
      "payable": false,
      "stateMutability": "view",
      "type": "function"
    },
    {
      "constant": false,
      "inputs": [
        {
          "name": "_theresponse",
          "type": "uint256"
        }
      ],
      "name": "recordresponses",
      "outputs": [],
      "payable": false,
      "stateMutability": "nonpayable",
      "type": "function"
    },
    {
      "constant": false,
      "inputs": [
        {
          "name": "_papercodedummy",
          "type": "uint256"
        }
      ],
      "name": "checkmarks",
      "outputs": [],
      "payable": false,
      "stateMutability": "nonpayable",
      "type": "function"
    }
  ],
  "bytecode": "0x60806040526000600155600a600255600a60405190808252806020026020018201604052801561003e5781602001602082028038833980820191505090505b506006908051906020019061005492919061029b565b5034801561006157600080fd5b506100af6040805190810160405280600881526020017f4a6f686e20446f6500000000000000000000000000000000000000000000000081525061019b640100000000026401000000009004565b6100fc6040805190810160405280600881526020017f4c696c204a6f686e00000000000000000000000000000000000000000000000081525061019b640100000000026401000000009004565b6101496040805190810160405280600f81526020017f4a61636b2054686520526970706572000000000000000000000000000000000081525061019b640100000000026401000000009004565b6101966040805190810160405280600a81526020017f4a6f652044616e7665720000000000000000000000000000000000000000000081525061019b640100000000026401000000009004565b6103da565b60a060405190810160405280600054815260200182815260200160008152602001600380548060200260200160405190810160405280929190818152602001828054801561020857602002820191906000526020600020905b8154815260200190600101908083116101f4575b50505050508152602001600081525060046000805481526020019081526020016000206000820151816000015560208201518160010190805190602001906102519291906102e8565b50604082015181600201556060820151816003019080519060200190610278929190610368565b506080820151816004015590505060016000815480929190600101919050555050565b8280548282559060005260206000209081019282156102d7579160200282015b828111156102d65782518255916020019190600101906102bb565b5b5090506102e491906103b5565b5090565b828054600181600116156101000203166002900490600052602060002090601f016020900481019282601f1061032957805160ff1916838001178555610357565b82800160010185558215610357579182015b8281111561035657825182559160200191906001019061033b565b5b50905061036491906103b5565b5090565b8280548282559060005260206000209081019282156103a4579160200282015b828111156103a3578251825591602001919060010190610388565b5b5090506103b191906103b5565b5090565b6103d791905b808211156103d35760008160009055506001016103bb565b5090565b90565b610617806103e96000396000f300608060405260043610610083576000357c0100000000000000000000000000000000000000000000000000000000900463ffffffff16806362b03f21146100885780638d8e5364146100b3578063a0a90b151461016e578063c451851b146101c9578063dae88e65146101f6578063ed27bc4614610221578063f0dd1e171461024e575b600080fd5b34801561009457600080fd5b5061009d6102ba565b6040518082815260200191505060405180910390f35b3480156100bf57600080fd5b506100de600480360381019080803590602001909291905050506102c0565b6040518085815260200180602001848152602001838152602001828103825285818151815260200191508051906020019080838360005b83811015610130578082015181840152602081019050610115565b50505050905090810190601f16801561015d5780820380516001836020036101000a031916815260200191505b509550505050505060405180910390f35b34801561017a57600080fd5b506101af600480360381019080803573ffffffffffffffffffffffffffffffffffffffff169060200190929190505050610388565b604051808215151515815260200191505060405180910390f35b3480156101d557600080fd5b506101f4600480360381019080803590602001909291905050506103a8565b005b34801561020257600080fd5b5061020b6104ae565b6040518082815260200191505060405180910390f35b34801561022d57600080fd5b5061024c600480360381019080803590602001909291905050506104b4565b005b34801561025a57600080fd5b50610263610566565b6040518080602001828103825283818151815260200191508051906020019060200280838360005b838110156102a657808201518184015260208101905061028b565b505050509050019250505060405180910390f35b60025481565b6004602052806000526040600020600091509050806000015490806001018054600181600116156101000203166002900480601f0160208091040260200160405190810160405280929190818152602001828054600181600116156101000203166002900480156103725780601f1061034757610100808354040283529160200191610372565b820191906000526020600020905b81548152906001019060200180831161035557829003601f168201915b5050505050908060020154908060040154905084565b60056020528060005260406000206000915054906101000a900460ff1681565b6000600560003373ffffffffffffffffffffffffffffffffffffffff1673ffffffffffffffffffffffffffffffffffffffff16815260200190815260200160002060009054906101000a900460ff1615151561040357600080fd5b600090505b6002548110156104aa576001600560003373ffffffffffffffffffffffffffffffffffffffff1673ffffffffffffffffffffffffffffffffffffffff16815260200190815260200160002060006101000a81548160ff0219169083151502179055508160046000805481526020019081526020016000206003018281548110151561048f57fe5b90600052602060002001819055508080600101915050610408565b5050565b60015481565b600080600091505b6002548210156105615760046000848152602001908152602001600020600301828154811015156104e957fe5b906000526020600020015460068381548110151561050357fe5b90600052602060002001541415610554576004600084815260200190815260200160002060020160008154809291906001019190505550600460008481526020019081526020016000206002015490505b81806001019250506104bc565b505050565b606060036000908060018154018082558091505090600182039060005260206000200160009091929091909150555060038054806020026020016040519081016040528092919081815260200182805480156105e157602002820191906000526020600020905b8154815260200190600101908083116105cd575b50505050509050905600a165627a7a72305820c831978ac9ca6a9bb070353d545a2a747e708d62d7816c4e1b05dd941091e8d30029",
  "source": "pragma solidity ^0.4.24;\r\n\r\ncontract ExamContract{\r\n\r\n\tstruct CandidateAccount{\r\n\r\n\t\tuint paper_code;  \r\n\r\n\t\tstring candidate_name;\r\n\r\n\t\tuint marks_obtained;\r\n\r\n\t\tuint[] theresponses;\r\n\r\n\t\tuint ether_balance;\r\n\r\n\t}\r\n\r\n\tuint private papercodedummy;\r\n\r\n\tuint public totalnoofcandidates = 0;\r\n\r\n\tuint public paperlength = 10; \r\n\r\n\tuint[] zeroarray;\r\n\r\n\r\n\tfunction initarray() constant public returns(uint[]) {\r\n\r\n\t\tzeroarray.push(0);\r\n\r\n\t\treturn zeroarray;\r\n\t}\r\n\r\n\r\n\tmapping(uint => CandidateAccount) public candidateaccountgetter;\r\n\r\n\tmapping(address => bool) public testcandidates;  \r\n\r\n\tfunction addatestcandidate (string _name) private {\r\n\r\n\t\tcandidateaccountgetter[papercodedummy] = CandidateAccount(papercodedummy, _name, 0, zeroarray, 0);\r\n\r\n\t\ttotalnoofcandidates++;\r\n\t}\r\n\r\n\r\n\tfunction recordresponses (uint _theresponse) public {\r\n\r\n\t\trequire(!testcandidates[msg.sender]);\r\n\r\n\t\tfor(uint i = 0 ; i < paperlength; i++)\r\n\t\t{\r\n\t\t\ttestcandidates[msg.sender] = true;\r\n\r\n\t\t\tcandidateaccountgetter[papercodedummy].theresponses[i] = _theresponse;\r\n\r\n\t\t}\r\n\t\r\n\t}\r\n\r\n\tuint[] answerkeys = new uint[](10);\r\n\r\n\tfunction setquestionpaper() private{\r\n\r\n\t\tfor(uint i = 0; i < 10; i++)\r\n\t\t{\r\n\t\t\tanswerkeys.push((uint)(i + 25)/6);\r\n\r\n\t\t\t// Random answer key allotment.\r\n\t\t}\r\n\r\n\r\n\t}\r\n\r\n\tfunction checkmarks(uint _papercodedummy) public {\r\n\r\n\t\tfor(uint i = 0; i < paperlength; i++)\r\n\t\t{\r\n\t\t\tif(answerkeys[i] == candidateaccountgetter[_papercodedummy].theresponses[i])\r\n\t\t\t{\r\n\t\t\t\tcandidateaccountgetter[_papercodedummy].marks_obtained++;\r\n\r\n\t\t\t\tuint marksdummy = candidateaccountgetter[_papercodedummy].marks_obtained;\r\n\t\t\t}\r\n\t\t}\r\n\r\n\t\t\r\n\t}\r\n\r\n\tconstructor () public{\r\n\r\n\t\taddatestcandidate(\"John Doe\");\r\n\r\n\t\taddatestcandidate(\"Lil John\");\r\n\r\n\t\taddatestcandidate(\"Jack The Ripper\");\r\n\r\n\t\taddatestcandidate(\"Joe Danver\");\r\n\r\n\t}\r\n\r\n}\r\n\r\n// Deployement successful \r\n   \r\n\r\n\r\n",
  "sourcePath": "C:\\Users\\redhood\\securetestportal\\contracts\\ExamContract.sol",
  "compiler": {
    "name": "solc",
    "version": "0.4.24+commit.e67f0147.Emscripten.clang"
  },
  "schemaVersion": "2.0.1",
  "updatedAt": "2018-08-05T18:20:42.179Z"
}