{
  "contractName": "receiveether",
  "abi": [
    {
      "anonymous": false,
      "inputs": [
        {
          "indexed": false,
          "name": "value",
          "type": "uint256"
        }
      ],
      "name": "Receive",
      "type": "event"
    },
    {
      "constant": false,
      "inputs": [],
      "name": "receiveamount",
      "outputs": [],
      "payable": true,
      "stateMutability": "payable",
      "type": "function"
    }
  ],
  "bytecode": "0x608060405260008055348015601357600080fd5b5060bc806100226000396000f300608060405260043610603f576000357c0100000000000000000000000000000000000000000000000000000000900463ffffffff1680631ed2890c146044575b600080fd5b604a604c565b005b7f49b4c3f4344f33413322c03885f90f29e906bd8eb0cb2c3d815ee1ad2b3c989c346040518082815260200191505060405180910390a134600054016000819055505600a165627a7a72305820ef91f08c65e1ea66378109571acf376430570813e57f4b9fd134feb0d2ccbca30029",
  "source": "\r\npragma solidity ^0.4.24;\r\n\r\ncontract receiveether{\r\n\r\n\tuint ether_balance = 0;\r\n\r\n\tevent Receive(uint value);\r\n\r\n\tfunction receiveamount () public payable {\r\n\t\t\r\n\t\tReceive(msg.value);\r\n\r\n\t\tether_balance = ether_balance + msg.value;\r\n\t}\r\n}\r\n",
  "sourcePath": "C:\\Users\\redhood\\securetestportal\\contracts\\receiveether.sol",
  "compiler": {
    "name": "solc",
    "version": "0.4.24+commit.e67f0147.Emscripten.clang"
  },
  "schemaVersion": "2.0.1",
  "updatedAt": "2018-08-05T18:12:00.164Z"
}