{
  "contractName": "sendether",
  "abi": [
    {
      "constant": false,
      "inputs": [
        {
          "name": "_receivercandidate",
          "type": "address"
        }
      ],
      "name": "sendetheramount",
      "outputs": [],
      "payable": true,
      "stateMutability": "payable",
      "type": "function"
    }
  ],
  "bytecode": "0x608060405234801561001057600080fd5b5060ed8061001f6000396000f300608060405260043610603f576000357c0100000000000000000000000000000000000000000000000000000000900463ffffffff1680633eeab07c146044575b600080fd5b6076600480360381019080803573ffffffffffffffffffffffffffffffffffffffff1690602001909291905050506078565b005b8073ffffffffffffffffffffffffffffffffffffffff166108fc349081150290604051600060405180830381858888f1935050505015801560bd573d6000803e3d6000fd5b50505600a165627a7a723058203d49589def98431896146bd7722f2b323d37f2ed6b933e25fdfa70cf66beebe40029",
  "source": "\r\npragma solidity ^0.4.24;\r\n\r\ncontract sendether {\r\n\r\n\t\r\n\r\n\t\r\n\r\n\t\tfunction sendetheramount (address _receivercandidate) public payable \r\n\t\t{\r\n\r\n\t\t// Now, try to access the marks obtained from the other contract.\r\n\t\t\t_receivercandidate.transfer(msg.value);\r\n\r\n\t\t// We have to call an event for accepting the ether account\r\n\r\n\t\t}\r\n\r\n\t\r\n}\r\n\r\n",
  "sourcePath": "C:\\Users\\redhood\\securetestportal\\contracts\\sendether.sol",
  "compiler": {
    "name": "solc",
    "version": "0.4.24+commit.e67f0147.Emscripten.clang"
  },
  "schemaVersion": "2.0.1",
  "updatedAt": "2018-08-05T18:12:00.164Z"
}